:100000000A128A112B2800308A000408840A820709
:100010000034543469346D3465343A342034003457
:1000200044346134743465343A34203400344C340C
:100030006F346E3467343A34203400344C346134D5
:1000400074343A3420340034213447345034533437
:0200500000347A
:1000560083132030840032300A128A15BB270A1215
:100066008A1183010A128A11D82B831603131815D5
:10007600333099001812831203139817831603134B
:10008600071787170C128C12831203139811831605
:1000960003131813831203131813831603139816E6
:1000A6008312031318160800F300692873088400E6
:1000B6000A128A1103200A128A110A128A15D627F1
:1000C6000A128A110130F2007208F30773088400DD
:1000D6000A128A1103200A128A110038031D742895
:1000E600752859280800FC000A128A15E2270A1208
:1000F6008A1183120313881208127C08FB0004304D
:100106000310FB0CFF3E031D83287B080F39803844
:100116008800081708137C080F39803888000817EC
:1001260008130800FD000A128A15E2270A128A112E
:10013600D0308312031388007D08FB0004300310BF
:10014600FB0CFF3E031DA2287B080F39FC007C0830
:1001560088040813D03088007D080F39FB007B081F
:10016600880408130800831603130108C1398100A7
:1001760006308312031381000B110030F4000030A7
:10018600F500D0280A128A159F270A128A11013013
:10019600F4070318F50A0030F5077508803AF300EE
:1001A6007208803A7302031DDA2871087402031C70
:1001B600DD28DE28C528080083120313B2000030AC
:1001C600B3000030B400FC283308320784000A125A
:1001D6008A1103200A128A110A128A1195200A121C
:1001E6008A11013083120313B3070318B40A0030CF
:1001F600B4073308320784000A128A1103200A1250
:100206008A110038031D08290929E72808000F303C
:10021600831603138800831203138816081202300C
:10022600F1000030F2000A128A11B6200A128A1171
:100236008312031308170808F6007608F9007908F0
:10024600F60003300310F60DFF3E031D25290310AB
:10025600760DF039F7007708F80008130817080834
:10026600F6007608F90079080F397804F600760862
:10027600F80008138812831603138801780808000B
:100286007A0879040319482949297B29831203131B
:10029600B2010314B20D5A2901300310F90DFA0DFB
:1002A600FF3E031D50290130FD007D08B207FA1FED
:1002B6005D295E294F297A087C02031D6429790885
:1002C6007B02031C672968296E297908FB027A08D4
:1002D600031CFC03FC0201300310FA0CF90CFF3E70
:1002E600031D6F290130B202031D7A297B295E297D
:1002F6007C08FA01FA077B08F901F90708000030C3
:10030600F6000030F7007208710403198B298C2956
:10031600C429F8010314F80D9B2901300310F10DCF
:10032600F20DFF3E031D91290130F5007508F8070F
:10033600F21F9E299F29902901300310F60DF70D13
:10034600FF3E031DA02972087402031DAC29710823
:100356007302031CAF29B029B7297108F30272088A
:10036600031CF403F402761401300310F20CF10CB2
:10037600FF3E031DB8290130F802031DC329C42915
:100386009F297708F201F2077608F101F1070800C4
:100396001E30F1000030F2000A128A11B6200A124D
:1003A6008A11831603138801831203138817081210
:1003B60008138812080803388800081708131E3027
:1003C600F1000030F2000A128A11B6200A128A11D0
:1003D600831203130808033888000817081308084F
:1003E60003388800081708131E30F1000030F200A9
:1003F6000A128A11B6200A128A1128300A128A11A4
:1004060076200A128A110F300A128A1176200A12F1
:100416008A1101300A128A1176200A128A110630D0
:100426000A128A1176200A128A1108000310003077
:1004360003180130F700F41F212A222A2A2AF30979
:10044600F409F30A0319F40AF7010314F70DF21F6E
:100456002D2A2E2A332AF109F209F10A0319F20A82
:10046600720871040319382A392A692AF601031415
:10047600F60D482A01300310F10DF20DFF3E031D63
:100486003E2A0130F5007508F607F21F4B2A4C2A62
:100496003D2A72087402031D522A71087302031C56
:1004A600552A562A5C2A7108F3027208031CF403C3
:1004B600F40201300310F20CF10CFF3E031D5D2A1D
:1004C6000130F602031D682A692A4C2A7708031DA3
:1004D6006D2A722AF309F409F30A0319F40A740857
:1004E600F201F2077308F101F1070800031000306A
:1004F60003180130F700F21F812A822A8A2AF1099D
:10050600F209F10A0319F20AF7010314F70DF41FB1
:100516008D2A8E2A972AF309F409F30A0319F40A95
:100526000130F5007508F7060030F8000030F900D4
:10053600720871040319A02AA12AD92AF601031404
:10054600F60DB02A01300310F10DF20DFF3E031D2A
:10055600A62A0130F5007508F607F21FB32AB42A59
:10056600A52A01300310F80DF90DFF3E031DB52A2B
:1005760072087402031DC12A71087302031CC42A7F
:10058600C52ACC2A7108F3027208031CF403F4028C
:10059600781401300310F20CF10CFF3E031DCD2A36
:1005A6000130F602031DD82AD92AB42A7708031D7A
:1005B600DD2AE22AF809F909F80A0319F90A79087D
:1005C600F201F2077808F101F1070800F8001C3083
:1005D6000A128A1157200A128A1178080A128A15F5
:1005E600D6270A128A116430F1000030F2000A128E
:1005F6008A11B6200A128A11831203130716C92B11
:100606000A128A15CC270A128A11F6007608831276
:100616000313AE000A128A15CC270A128A11F600B5
:10062600760883120313AF000A128A15CC270A1222
:100636008A11F600760883120313B000D72B0A122C
:100646008A15CC270A128A11F6007608831203133C
:10065600A8000A128A15CC270A128A11F600760813
:1006660083120313AD000A128A15CC270A128A11C7
:10067600F600760883120313B100D72B0A128A15E7
:10068600CC270A128A11F600760883120313A900F2
:100696000A128A15CC270A128A11F60076088312E6
:1006A6000313AC000A128A15CC270A128A11F60027
:1006B6007608F9000A128A15CC270A128A11F60062
:1006C6007608FA007908F600F7010830FE000310F4
:1006D600F60DF70DFE0B6A2B7A08760783120313C5
:1006E600A4000030031801307707A5000A128A1506
:1006F600CC270A128A11F600760883120313AA0081
:10070600D72B0A128A15CC270A128A11F600760808
:1007160083120313A9000A128A15CC270A128A111A
:10072600F600760883120313AC000A128A15CC274A
:100736000A128A11F6007608F9000A128A15CC27E1
:100746000A128A11F6007608FA007908F600F7010F
:100756000830FE000310F60DF70DFE0BAD2B7A08E0
:10076600760783120313A4000030031801307707BD
:10077600A5000A128A15CC270A128A11F6007608F5
:1007860083120313AA00D72BD72BD72B7808033A4B
:100796000319032B073A0319222B013A0319412B9C
:1007A600033A0319842BC72B08000A128A159827C7
:1007B6000A128A110A128A15C3270A128A110A1204
:1007C6008A11CB210A128A110A128A15EE270A12F9
:1007D6008A110A128A1138200A128A110A128A15F7
:1007E600A6270A128A110A128A15AD270A128A1139
:1007F60008300A128A11DF200A128A11A030F1008D
:100806000030F2000A128A11B6200A128A11043048
:100816000A128A11E9220A128A11E830F10003301D
:10082600F2000A128A11B6200A128A11E830F10083
:100836000330F2000A128A11B6200A128A110A300F
:10084600F1000030F200831203132808B500B60148
:100856003508F3003608F4000A128A1179220A12C2
:100866008A117108303E0A128A1195200A128A11DD
:100876000A30F1000030F200831203132808B50095
:10088600B6013508F3003608F4000A128A11192257
:100896000A128A117108303E0A128A1195200A122C
:1008A6008A112F300A128A1195200A128A110A30EB
:1008B600F1000030F200831203132D08B500B601D3
:1008C6003508F3003608F4000A128A1179220A1252
:1008D6008A117108303E0A128A1195200A128A116D
:1008E6000A30F1000030F200831203132D08B50020
:1008F600B6013508F3003608F4000A128A111922E7
:100906000A128A117108303E0A128A1195200A12BB
:100916008A112F300A128A1195200A128A110A307A
:10092600F1000030F200831203133108B500B6015E
:100936003508F3003608F4000A128A1179220A12E1
:100946008A117108303E0A128A1195200A128A11FC
:100956000A30F1000030F200831203133108B500AB
:10096600B6013508F3003608F4000A128A11192276
:100976000A128A117108303E0A128A1195200A124B
:100986008A11E830F1000330F2000A128A11B6200B
:100996000A128A110A128A15B4270A128A1101301C
:1009A6000A128A11DF200A128A11A030F1000030E3
:1009B600F2000A128A11B6200A128A1103300A12AC
:1009C6008A11E9220A128A110A30F1000030F20077
:1009D600831203132E08B500B6013508F300360856
:1009E600F4000A128A1179220A128A117108303E1D
:1009F6000A128A1195200A128A110A30F100003073
:100A0600F200831203132E08B500B6013508F30071
:100A16003608F4000A128A1119220A128A1171087C
:100A2600303E0A128A1195200A128A113A300A12A9
:100A36008A1195200A128A110A30F1000030F2005C
:100A4600831203132F08B500B6013508F3003608E4
:100A5600F4000A128A1179220A128A117108303EAC
:100A66000A128A1195200A128A110A30F100003002
:100A7600F200831203132F08B500B6013508F30000
:100A86003608F4000A128A1119220A128A1171080C
:100A9600303E0A128A1195200A128A113A300A1239
:100AA6008A1195200A128A110A30F1000030F200EC
:100AB600831203133008B500B6013508F300360873
:100AC600F4000A128A1179220A128A117108303E3C
:100AD6000A128A1195200A128A110A30F100003092
:100AE600F200831203133008B500B6013508F3008F
:100AF6003608F4000A128A1119220A128A1171089C
:100B0600303E0A128A1195200A128A11E830F10045
:100B16000330F2000A128A11B6200A128A110A124A
:100B26008A15A6270A128A110A128A15AD270A12F1
:100B36008A1116300A128A11DF200A128A11A03091
:100B4600F1000030F2000A128A11B6200A128A1148
:100B560005300A128A11E9220A128A110A30F100B6
:100B66000030F200831203132908B500B6013508D8
:100B7600F3003608F4000A128A1179220A128A1141
:100B86007108303E0A128A1195200A128A110A301B
:100B9600F1000030F200831203132908B500B601F4
:100BA6003508F3003608F4000A128A1119220A12CF
:100BB6008A117108303E0A128A1195200A128A118A
:100BC60020300A128A1195200A128A110A30F10081
:100BD6000030F200831203132C08B500B601350865
:100BE600F3003608F4000A128A1179220A128A11D1
:100BF6007108303E0A128A1195200A128A110A30AB
:100C0600F1000030F200831203132C08B500B60180
:100C16003508F3003608F4000A128A1119220A125E
:100C26008A117108303E0A128A1195200A128A1119
:100C36002E300A128A1195200A128A110A30F900FA
:100C46000030FA00E830F1000330F200831203139B
:100C56002508F401F4072408F301F3070A128A11A0
:100C660082210A128A117208FC01FC077108FB0135
:100C7600FB070A128A1143210A128A117908303EAB
:100C86000A128A1195200A128A110A30F9000030D8
:100C9600FA006430F1000030F200831203132508D5
:100CA600F401F4072408F301F3070A128A118221DA
:100CB6000A128A117208FC01FC077108FB01FB0786
:100CC6000A128A1143210A128A117908303E0A1241
:100CD6008A1195200A128A110A30F9000030FA00AA
:100CE6000A30F1000030F200831203132508F401E4
:100CF600F4072408F301F3070A128A1182210A1263
:100D06008A117208FC01FC077108FB01FB070A1235
:100D16008A1143210A128A117908303E0A128A1171
:100D260095200A128A110A30F9000030FA0083125F
:100D360003132508FC01FC072408FB01FB070A1224
:100D46008A1143210A128A117908303E0A128A1141
:100D560095200A128A1120300A128A1195200A1249
:100D66008A11831203132A080A128A1195200A127D
:100D76008A11E830F1000330F2000A128A11B62017
:100D86000A128A110A128A15B4270A128A110F301A
:100D96000A128A11DF200A128A11A030F1000030EF
:100DA600F2000A128A11B6200A128A1106300A12B5
:100DB6008A11E9220A128A110A30F1000030F20083
:100DC600831203132908B500B6013508F300360867
:100DD600F4000A128A1179220A128A117108303E29
:100DE6000A128A1195200A128A110A30F10000307F
:100DF600F200831203132908B500B6013508F30083
:100E06003608F4000A128A1119220A128A11710888
:100E1600303E0A128A1195200A128A1120300A12CF
:100E26008A1195200A128A110A30F1000030F20068
:100E3600831203132C08B500B6013508F3003608F3
:100E4600F4000A128A1179220A128A117108303EB8
:100E56000A128A1195200A128A110A30F10000300E
:100E6600F200831203132C08B500B6013508F3000F
:100E76003608F4000A128A1119220A128A11710818
:100E8600303E0A128A1195200A128A112E300A1251
:100E96008A1195200A128A110A30F9000030FA00E8
:100EA600E830F1000330F200831203132508F40141
:100EB600F4072408F301F3070A128A1182210A12A1
:100EC6008A117208FC01FC077108FB01FB070A1274
:100ED6008A1143210A128A117908303E0A128A11B0
:100EE60095200A128A110A30F9000030FA0064309F
:100EF600F1000030F200831203132508F401F40711
:100F06002408F301F3070A128A1182210A128A11B0
:100F16007208FC01FC077108FB01FB070A128A1123
:100F260043210A128A117908303E0A128A11952045
:100F36000A128A110A30F9000030FA000A30F1006C
:100F46000030F200831203132508F401F407240885
:100F5600F301F3070A128A1182210A128A11720812
:100F6600FC01FC077108FB01FB070A128A114321E9
:100F76000A128A117908303E0A128A1195200A123D
:100F86008A110A30F9000030FA008312031325088B
:100F9600FC01FC072408FB01FB070A128A11432106
:100FA6000A128A117908303E0A128A1195200A120D
:100FB6008A1120300A128A1195200A128A11831288
:100FC60003132A080A128A1195200A128A11E83098
:100FD600F1000330F2000A128A11B6200A128A11B1
:100FE6001E30F1000030F2000A128A11B6200A12F1
:0A0FF6008A11F12B0A128A1100285B
:101F30008316031308128812081388170800A02FAD
:101F40000B1DA32FA42FA02F0B11080001300A1284
:101F50008A1176200A128A15080080300A128A1126
:101F600076200A128A150800C0300A128A117620DB
:101F70000A128A15080064008001840A0406031905
:101F800000340406BC2F0A128A1598270A128A15F3
:101F90008312031388170800831203130716D02F28
:101FA0008C1ED32FD42FD02F1A080800F1008312D3
:101FB00003130712DB2F0C1EDE2FDF2FDB2F710820
:101FC00099000800E32F0A128A110A210A128A15C1
:101FD000FA00FA1BEC2FED2FE32F080083160313F2
:101FE0000712871283120313071287160A30F100B3
:101FF0000030F2000A128A11B6200A128A1508006F
:02400E007A3FF7
:00000001FF
