:060000000A128A11122809
:10000800FF00030883120313AC000408AD000A08BC
:10001800AE007E08AF000A128A11AE2B0A128A11AE
:02002800C42BE7
:10020000FE00FE1F082983137E18831700080800CC
:100210000408FE0001308A007E08820700340134A1
:100220000034003400340A340034003400346434C0
:10023000003400340034E834033400340034103423
:10024000273400340034A034863401340034403480
:1002500042340F34003480349634983400340034FF
:10026000E134F53405340034CA349A343B34003474
:1002700080343F34CD34CC343D34D73423343C3413
:10028000123483343A34B734D1343834C634273452
:100290003734383486343534C034D6343334CC34FF
:1002A0002B343234703489343034E734DB342E3438
:1002B000E5343C341E344234A2340D3400348034EE
:1002C0003F340034203441340034C83442340034E4
:1002D0007A34443440341C3446345034C3344734C4
:1002E000243474344934973418344B34BC34BE3419
:1002F0004C346B346E344E3403341534503479340A
:10030000AD346034F3344934713448343A342534EC
:10031000643420344D343A34253464342034533436
:100320003A34253464340034633427346534733408
:100330007434203466346134733474346F34633409
:100340006834653400344C346534203450344934D6
:100350004334203431343634463438343734373447
:100360000034203420342034523445344134443471
:1003700059342034213421342134003456343D346E
:1003800025342E343234663420346D3456340034FF
:100390000A128A11FC230A128A110A128A11DD2319
:1003A0000A128A110A128A1153220A128A119530EE
:1003B00083120313A9000030AA000A128A11B22284
:1003C0000A128A110A128A11F5230A128A1186303A
:1003D00083120313A9000030AA000A128A11B22264
:1003E0000A128A11883083120313A0001330A1006F
:1003F0000A128A116A230A128A110A128A11EE233A
:100400000A128A110130F5000030F60076088312D6
:100410000313A701A7077508A601A6070A128A11E8
:1004200021230A128A11FF300A128A1147230A1265
:100430008A11643083120313A0000030A1000A1255
:100440008A116A230A128A110130F5070318F60A85
:100450000030F6077608803A83120313AB00803031
:100460002B02031D352A11307502031C382A392A44
:10047000062A113083120313A6000030A7000A12C7
:100480008A1121230A128A11A33083120313A900AF
:100490000030AA000A128A11B2220A128A114F2AC7
:1004A0000A128A1112281E3083120313A000003092
:1004B000A1000A128A116A230A128A11031000305D
:1004C000031801308316031388008312031388175F
:1004D0000812081388120808033888000817081340
:1004E0001E30A0000030A1000A128A116A230A12ED
:1004F0008A118312031308080338880008170813A9
:100500001E30A0000030A1000A128A116A230A12CC
:100510008A11831203130808033888000817081388
:100520001E30A0000030A1000A128A116A230A12AC
:100530008A1128300A128A118D230A128A110F306B
:100540000A128A118D230A128A1101300A128A11A5
:100550008D230A128A1106300A128A118D230A127B
:100560008A110800003083120313A7000030A8008E
:10057000D52A2A08A6002908A500270825078400EF
:1005800026080318260A0A128A1100210A128A1163
:100590000A128A1147230A128A11013083120313A7
:1005A000A7070318A80A0030A8072A08A6002908E8
:1005B000A50027082507840026080318260A0A1222
:1005C0008A1100210A128A110038031DE82AE92A3B
:1005D000B92A08000F30831603138800831203130F
:1005E000881608120230A0000030A1000A128A11F9
:1005F0006A230A128A118312031308170808A2003B
:100600002208F70003300310F70DFF3E031D032BF4
:100610000310770DF039A300081308170808A2008B
:1006200022080F392304A300081388120310003096
:100630000318013083160313880083120313230861
:100640000800831203132708803AA5008030250292
:10065000031D2C2B1130260203182F2B302B3B2B84
:10066000831203132608FF3E80380A128A118D2355
:100670000A128A11462B831203132608FF3E0F39F4
:10068000C0380A128A118D230A128A1108008312B7
:100690000313A4000A128A11D2230A128A11D0303D
:1006A0008312031388002408F90004300310F90CA6
:1006B000FF3E031D562B79080F39FA007A0888048B
:1006C0000813D030880024080F39F900790888040D
:1006D00008130800831603130108C139810006308E
:1006E0008312031381000B117A2B0A128A11E6235D
:1006F0000A128A11FF3083120313A0070318A10AFC
:10070000FF30A107FF302106031D882BFF30200694
:10071000031D8B2B8C2B752B080083120313A40055
:100720000A128A11D2230A128A1183120313881221
:1007300008122408F90004300310F90CFF3E031DD1
:100740009C2B79080F398038880008170813240873
:100750000F39803888000817081308000C103C3047
:100760008F00C6308E000130F1070318F20A003006
:10077000F2072F08FE002E088A002D0884002C089E
:100780008300FF0E7F0E0900F101F201F301F40175
:10079000F501F601B001B101B201B30183010A1202
:1007A0008A11C8290A128A11EA220A128A11F8004B
:1007B000F81BDB2BDC2BD22B08000A128A11FC233E
:1007C0000A128A1183120313881708008312031375
:1007D0000B1DEB2BEC2BE62B0B11080001300A1242
:1007E0008A118D230A128A110800C0300A128A1158
:1007F0008D230A128A110800831603130812881227
:0608000008138817080030
:02400E007A3FF7
:00000001FF
