:060000000A128A152F2FE1
:10000C00F7008312031307120C1E0D280E280A2862
:10001C00770899000800F900222879080A128A1535
:10002C0009270A128A110A128A1106200A128A1149
:10003C000130F8007808F90779080A128A1509279F
:10004C000A128A110038031D2C282D2813280800A9
:10005C0083160313181533309900181283120313E7
:10006C00981783160313071787170C128C12831219
:10007C000313981183160313181383120313181305
:10008C008316031398168312031318160800831291
:10009C000313A6000A128A1558270A128A11831212
:1000AC000313881208122608FA0004300310FA0C05
:1000BC00FF3E031D5C287A080F398038880008172A
:1000CC00081326080F398038880008170813080011
:1000DC0083120313A8000A128A1558270A128A11D0
:1000EC00D0308312031388002808A60004300310B4
:1000FC00A60CFF3E031D7D2826080F39A7002708F4
:10010C0088040813D030880028080F39A600260868
:10011C0088040813080083120313A9000030AA00F6
:10012C000030AB00AD2829082A070A128A150927C6
:10013C000A128A110A128A116E200A128A110130CF
:10014C0083120313AA070318AB0A0030AB07290864
:10015C002A070A128A1509270A128A110038031D68
:10016C00B828B92899280800831603130108C13947
:10017C00810006308312031381000B110030A000A4
:10018C000030A100D6280A128A1575270A128A1186
:10019C00013083120313A0070318A10A0030A10732
:1001AC002108803AF7002308803A7702031DE028E3
:1001BC0022082002031CE328E428C92808000F3079
:1001CC008316031388008312031388160812023057
:1001DC00A2000030A3000A128A11BA200A128A1156
:1001EC008312031308170808A4002408F80003302E
:1001FC000310F80DFF3E031DFE280310780DF03997
:10020C00A500081308170808A40024080F392504B2
:10021C00A500081388120310003003180130831650
:10022C000313880083120313250808008312031399
:10023C002A0829040319232924295429F901031410
:10024C00F90D332901300310A90DAA0DFF3E031D32
:10025C0029290130F8007808F907AA1F362937290F
:10026C0028292A082802031D3D2929082702031CD6
:10027C004029412947292908A7022A08031CA80359
:10028C00A80201300310AA0CA90CFF3E031D48293B
:10029C000130F902031D5329542937292808A801D4
:1002AC00A8072708A701A70708000030831203132B
:1002BC00A0000030A100260825040319662967292F
:1002CC009F29A2010314A20D762901300310A50D5C
:1002DC00A60DFF3E031D6C290130F7007708A2071D
:1002EC00A61F79297A296B2901300310A00DA10DC5
:1002FC00FF3E031D7B2926082402031D87292508A0
:10030C002302031C8A298B2992292508A30226087B
:10031C00031CA403A402201401300310A60CA50C8A
:10032C00FF3E031D93290130A202031D9E299F2924
:10033C007A292108A401A4072008A301A307080017
:10034C001E3083120313A2000030A3000A128A117C
:10035C00BA200A128A1103100030031801308316D8
:10036C0003138800831203138817081208138812CA
:10037C00080803388800081708131E30A200003044
:10038C00A3000A128A11BA200A128A1183120313CB
:10039C000808033888000817081308080338880071
:1003AC00081708131E30A2000030A3000A128A118D
:1003BC00BA200A128A1128300A128A114D200A1208
:1003CC008A110F300A128A114D200A128A1101303B
:1003DC000A128A114D200A128A1106300A128A1149
:1003EC004D200A128A110800031000300318013046
:1003FC00F80083120313A11F042A052A0D2AA00951
:10040C00A109A00A0319A10AF8010314F80DA31FEE
:10041C00102A112A162AA209A309A20A0319A30A4F
:10042C002308220403191B2A1C2A4C2AF901031441
:10043C00F90D2B2A01300310A20DA30DFF3E031D55
:10044C00212A0130F7007708F907A31F2E2A2F2A3B
:10045C00202A23082102031D352A22082002031C0E
:10046C00382A392A3F2A2208A0022308031CA10398
:10047C00A10201300310A30CA20CFF3E031D402A65
:10048C000130F902031D4B2A4C2A2F2A7808031D30
:10049C00502A552AA009A109A00A0319A10A08008B
:1004AC00031000300318013083120313A100A71F9F
:1004BC00602A612A692AA609A709A60A0319A70AAC
:1004CC00A1010314A10DA51F6C2A6D2A762AA4097B
:1004DC00A509A40A0319A50A0130F7007708A1069B
:1004EC000030A2000030A3002708260403197F2A3D
:1004FC00802AB82AA0010314A00D8F2A0130031002
:10050C00A60DA70DFF3E031D852A0130F7007708C5
:10051C00A007A71F922A932A842A01300310A20D48
:10052C00A30DFF3E031D942A27082502031DA02AB4
:10053C0026082402031CA32AA42AAB2A2608A402F8
:10054C002708031CA503A502221401300310A70CD5
:10055C00A60CFF3E031DAC2A0130A002031DB72AD6
:10056C00B82A932A2108031DBC2AC12AA209A3096F
:10057C00A20A0319A30A2308A501A5072208A401AE
:10058C00A407080083120313A7001C300A128A1157
:10059C0011200A128A118312031327080A128A11D6
:1005AC0006200A128A11643083120313A200003051
:1005BC00A3000A128A11BA200A128A118312031399
:1005CC0007164D2B0A128A156C270A128A118312F0
:1005DC000313B9000A128A156C270A128A118312A6
:1005EC000313BA000A128A156C270A128A11F50035
:1005FC005B2B0A128A156C270A128A1183120313B9
:10060C00B6000A128A156C270A128A118312031378
:10061C00B8000A128A156C270A128A11F6005B2B95
:10062C000A128A156C270A128A11F3000A128A150B
:10063C006C270A128A11F4000A128A156C270A1206
:10064C008A1183120313A9000A128A156C270A1245
:10065C008A1183120313A8002908A400A5010830ED
:10066C00A6000310A40DA50DA60B372B28082407F4
:10067C00F1000030031801302507F2000A128A1528
:10068C006C270A128A1183120313B7005B2B2708FD
:10069C00033A0319E82A073A0319FF2A013A031906
:1006AC00162B033A0319162B5B2B08000A128A151A
:1006BC0084270A128A110A128A1563270A128A11D0
:1006CC000A128A11A6210A128A110A128A154627C1
:1006DC000A128A110A128A112E200A128A110A127F
:1006EC008A1592270A128A110A128A158B270A1266
:1006FC008A1101300A128A1191200A128A11A03033
:10070C0083120313A2000030A3000A128A11BA202C
:10071C000A128A1104300A128A11C8220A128A118A
:10072C00E83083120313A2000330A3000A128A11CB
:10073C00BA200A128A11E83083120313A200033084
:10074C00A3000A128A11BA200A128A118312031307
:10075C003608AC00AD012C08A4002D08A5006430AF
:10076C00A6000030A7000A128A1156220A128A111A
:10077C008313831203132408303E0A128A116E204D
:10078C000A128A11831203133608AC00AD012C082F
:10079C00A0002D08A1006430A2000030A3000A12B2
:1007AC008A11FA210A128A11831383120313200867
:1007BC00303E0A128A116E200A128A112F300A1248
:1007CC008A116E200A128A11831203133808AC00A6
:1007DC00AD012C08A4002D08A5006430A600003043
:1007EC00A7000A128A1156220A128A118313831245
:1007FC0003132408303E0A128A116E200A128A1141
:10080C00831203133808AC00AD012C08A0002D088E
:10081C00A1006430A2000030A3000A128A11FA2150
:10082C000A128A118313831203132008303E0A1212
:10083C008A116E200A128A112F300A128A116E2028
:10084C000A128A11760883120313AC00AD012C082E
:10085C00A4002D08A5006430A6000030A7000A12E1
:10086C008A1156220A128A11831383120313240845
:10087C00303E0A128A116E200A128A1176088312EF
:10088C000313AC00AD012C08A0002D08A1006430AE
:10089C00A2000030A3000A128A11FA210A128A114E
:1008AC008313831203132008303E0A128A116E2020
:1008BC000A128A11E83083120313A2000330A3003A
:1008CC000A128A11BA200A128A110A128A157D2775
:1008DC000A128A1108300A128A1191200A128A11FE
:1008EC00A03083120313A2000030A3000A128A1155
:1008FC00BA200A128A1103300A128A11C8220A126B
:10090C008A11831203133908AC00AD012C08A40022
:10091C002D08A5000A30A6000030A7000A128A1183
:10092C0056220A128A118313831203132408303EB1
:10093C000A128A116E200A128A11831203133908C3
:10094C00AC00AD012C08A0002D08A1000A30A200BB
:10095C000030A3000A128A11FA210A128A11831399
:10096C00831203132008303E0A128A116E200A12D9
:10097C008A113A300A128A116E200A128A118312D5
:10098C0003133A08AC00AD012C08A4002D08A500F7
:10099C000A30A6000030A7000A128A1156220A1249
:1009AC008A118313831203132408303E0A128A110E
:1009BC006E200A128A11831203133A08AC00AD019F
:1009CC002C08A0002D08A1000A30A2000030A300C2
:1009DC000A128A11FA210A128A1183138312031341
:1009EC002008303E0A128A116E200A128A113A30FF
:1009FC000A128A116E200A128A11750883120313C7
:100A0C00AC00AD012C08A4002D08A5000A30A600EE
:100A1C000030A7000A128A1156220A128A11831377
:100A2C00831203132408303E0A128A116E200A1214
:100A3C008A11750883120313AC00AD012C08A000B9
:100A4C002D08A1000A30A2000030A3000A128A115E
:100A5C00FA210A128A118313831203132008303EE1
:100A6C000A128A116E200A128A11E83083120313BB
:100A7C00A2000330A3000A128A11BA200A128A11AA
:100A8C000A128A1592270A128A110A128A158B27C2
:100A9C000A128A1116300A128A1191200A128A112E
:100AAC00A03083120313A2000030A3000A128A1193
:100ABC00BA200A128A1105300A128A11C8220A12A7
:100ACC008A11730883120313AC00AD012C08A40027
:100ADC002D08A5000A30A6000030A7000A128A11C2
:100AEC0056220A128A118313831203132408303EF0
:100AFC000A128A116E200A128A11730883120313C8
:100B0C00AC00AD012C08A0002D08A1000A30A200F9
:100B1C000030A3000A128A11FA210A128A118313D7
:100B2C00831203132008303E0A128A116E200A1217
:100B3C008A1120300A128A116E200A128A11740846
:100B4C0083120313AC00AD012C08A4002D08A500E2
:100B5C000A30A6000030A7000A128A1156220A1287
:100B6C008A118313831203132408303E0A128A114C
:100B7C006E200A128A11740883120313AC00AD01A3
:100B8C002C08A0002D08A1000A30A2000030A30000
:100B9C000A128A11FA210A128A118313831203137F
:100BAC002008303E0A128A116E200A128A112E3049
:100BBC000A128A116E200A128A1172088312031308
:100BCC00A401A4077108A301A307E830A500033012
:100BDC00A6000A128A115B210A128A11831383124E
:100BEC0003132408A801A8072308A701A7070A30A4
:100BFC00A9000030AA000A128A111C210A128A11BB
:100C0C008313831203132708303E0A128A116E20B5
:100C1C000A128A11720883120313A401A407710823
:100C2C00A301A3076430A5000030A6000A128A11A4
:100C3C005B210A128A118313831203132408A8015F
:100C4C00A8072308A701A7070A30A9000030AA00AB
:100C5C000A128A111C210A128A118313831203139C
:100C6C002708303E0A128A116E200A128A11720865
:100C7C0083120313A401A4077108A301A3070A306C
:100C8C00A5000030A6000A128A115B210A128A11F3
:100C9C008313831203132408A801A8072308A701B0
:100CAC00A7070A30A9000030AA000A128A111C21D9
:100CBC000A128A118313831203132708303E0A1277
:100CCC008A116E200A128A11720883120313A8016A
:100CDC00A8077108A701A7070A30A9000030AA00CD
:100CEC000A128A111C210A128A118313831203130C
:100CFC002708303E0A128A116E200A128A112030FF
:100D0C000A128A116E200A128A11831203133708F1
:100D1C000A128A116E200A128A11E8308312031308
:100D2C00A2000330A3000A128A11BA200A128A11F7
:100D3C000A128A157D270A128A110F300A128A119B
:100D4C0091200A128A11A03083120313A2000030E2
:100D5C00A3000A128A11BA200A128A1106300A124A
:100D6C008A11C8220A128A11730883120313AC0069
:100D7C00AD012C08A4002D08A5000A30A6000030F7
:100D8C00A7000A128A1156220A128A11831383129F
:100D9C0003132408303E0A128A116E200A128A119B
:100DAC00730883120313AC00AD012C08A0002D08AE
:100DBC00A1000A30A2000030A3000A128A11FA2105
:100DCC000A128A118313831203132008303E0A126D
:100DDC008A116E200A128A1120300A128A116E2092
:100DEC000A128A11740883120313AC00AD012C088B
:100DFC00A4002D08A5000A30A6000030A7000A1296
:100E0C008A1156220A128A1183138312031324089F
:100E1C00303E0A128A116E200A128A11740883124B
:100E2C000313AC00AD012C08A0002D08A1000A3062
:100E3C00A2000030A3000A128A11FA210A128A11A8
:100E4C008313831203132008303E0A128A116E207A
:100E5C000A128A112E300A128A116E200A128A1175
:100E6C00720883120313A401A4077108A301A3073A
:100E7C00E830A5000330A6000A128A115B210A1281
:100E8C008A118313831203132408A801A8072308CB
:100E9C00A701A7070A30A9000030AA000A128A117C
:100EAC001C210A128A118313831203132708303E64
:100EBC000A128A116E200A128A1172088312031305
:100ECC00A401A4077108A301A3076430A500003096
:100EDC00A6000A128A115B210A128A11831383124B
:100EEC0003132408A801A8072308A701A7070A30A1
:100EFC00A9000030AA000A128A111C210A128A11B8
:100F0C008313831203132708303E0A128A116E20B2
:100F1C000A128A11720883120313A401A407710820
:100F2C00A301A3070A30A5000030A6000A128A11FB
:100F3C005B210A128A118313831203132408A8015C
:100F4C00A8072308A701A7070A30A9000030AA00A8
:100F5C000A128A111C210A128A1183138312031399
:100F6C002708303E0A128A116E200A128A11720862
:100F7C0083120313A801A8077108A701A7070A3059
:100F8C00A9000030AA000A128A111C210A128A1127
:100F9C008313831203132708303E0A128A116E2022
:100FAC000A128A1120300A128A116E200A128A1132
:100FBC008312031337080A128A116E200A128A113F
:100FCC00E83083120313A2000330A3000A128A1123
:100FDC00BA200A128A111E3083120313A2000030A9
:100FEC00A3000A128A11BA200A128A11752B0A124E
:040FFC008A1100282E
:101E0000FE00FE1F082F83137E18831700080800AA
:101E10000408FE000F308A007E0882070034443434
:101E20006134743465343A342034003454346934C1
:101E30006D3465343A34203400344C346F346E34AD
:101E400067343A34203400344C34613474343A34D6
:101E50002034003421344734503453340034F101F9
:101E6000F201F301F401F501F601AE01AF01B00199
:101E7000B101B201B301B401B501B601B701B801B6
:101E8000B901BA0183010A128A115C2B831603136C
:101E90000712871283120313071287160A30A20053
:101EA0000030A3000A128A11BA200A128A1508000B
:101EB0000A128A11E5200A128A15F900F91B612F0E
:101EC000622F582F08000A128A1584270A128A15D1
:101ED00083120313881708008312031307168C1E3E
:101EE000722F732F6F2F1A080800831203130B1D14
:101EF0007A2F7B2F752F0B110800C0300A128A1120
:101F00004D200A128A15080083160313081288123E
:101F100008138817080080300A128A114D200A120F
:101F20008A15080001300A128A114D200A128A15FA
:021F30000800A7
:02400E007A3FF7
:00000001FF
