:060000000A128A11122809
:10000800FF00030883160313B1000408B2000A08AE
:10001800B3007E08B4000A128A11C12F0A128A118D
:10002800E12F01302C2A83120313A6000712AE30E9
:100038003F210A128A118312031326085A210A1231
:100048008A11063083120313A000A101C3220A12E9
:100058008A11831203130716CC28031000300318E3
:100068000130F500E5200A128A11F9007508623E90
:1000780084007908831380000130F900F507033004
:100088007502031C3628831203136208023EA2007D
:10009800003003180130A3001830A400A501EB209C
:1000A8000A128A118313831203132208E200DF283D
:1000B8000310003003180130F500E5200A128A11F8
:1000C800F90075085F3E84007908831380000130C9
:1000D800F900F507033075020318DF2861280310BB
:1000E800003003180130F500E5200A128A11F900E2
:1000F8007508513E84007908831380000130F900A7
:10010800F507053075020318DF287828031000303A
:1001180003180130F500E5200A128A11F900750864
:10012800563E84007908831380000130F900F507F2
:10013800053075020318DF288F28031000300318D4
:100148000130F500E5200A128A11F9007508733E9E
:100158008400790880000130F900F5077508031953
:10016800A628DF280310003003180130F500E52029
:100178000A128A11F9007508713E84007908800016
:100188000130F900F507023075020318DF28BB2893
:100198002608023A0319A128013A03193128073A17
:1001A80003195C28013A03197328033A03198A28AA
:1001B800013A0319B628643083120313A000A10181
:1001C800C32A831203138C1EE5281A08080003109B
:1001D80000300318013083120313A000A31FFC286A
:1001E800A209A309A20A0319A30AA0010314A00DD6
:1001F800A51F0329A409A509A40A0319A50A250806
:10020800240403193029A1010314A10DA51B1729E2
:1002180001300310A40DA50DFF3E031D0D2901306B
:10022800F700A1070A2925082302031D1D29240810
:100238002202031C25292408A2022508031CA30363
:10024800A30201300310A50CA40CFF3E031D2629B0
:100258000130A102031D1729200803193829A20912
:10026800A309A20A0319A30A2308A301A3072208C2
:10027800A201A207080083120313A00020080A1293
:100288008A1109270A128A11003803190800200860
:100298000A128A1109270A128A115A210A128A1186
:1002A8000130F80083120313A0074229F7008312D4
:1002B80003130C1E5B2977089900080083120313A7
:1002C8002808FF3EA40029080318013EFF3EA500A8
:1002D8001030A600A70183210A128A118313831202
:1002E80003132408FA0006300310FA0DFF3E031D1D
:1002F80078292808FF3E0F397A07803E2C2A0310F8
:1003080000300318013083120313A100A71F94299A
:10031800A609A709A60A0319A70AA1010314A10D92
:10032800A51F9E29A409A509A40A0319A50A013035
:10033800F700A106A201A301270826040319D5295D
:10034800A0010314A00D0130A71BB5290310A60DA9
:10035800A70DFF3E031DAA290130F700A007A72912
:1003680001300310A20DA30DFF3E031DB529270878
:100378002502031DC12926082402031CCA292608B0
:10038800A4022708031CA503A502221401300310A8
:10039800A70CA60CFF3E031DCB290130A002031DAC
:1003A800B42921080319DD29A209A309A20A0319FE
:1003B800A30A2308A501A5072208A401A407080089
:1003C8001E3083120313A000A101C3220A128A114E
:1003D80003100030031801308316031388008312BA
:1003E80088170812081388120808033888000817A5
:1003F80008131E30A000A101C3220A128A11831219
:100408000313080803388800081708131E30A000D3
:10041800A101C3220A128A118312031308080338A0
:100428008800081708131E30A0000030A100C3225E
:100438000A128A1128302C220A128A110F302C2213
:100448000A128A1101302C220A128A1106302C2A2B
:1004580083120313A4008C220A128A118312031335
:10046800881208122408F90004300310F90CFF3E22
:10047800031D392A79080F398038880008170813AE
:1004880024080F39803888000817081308008312D9
:1004980003132508840026080A128A1100270A1265
:1004A8008A110038031908002508840026080A1252
:1004B8008A1100270A128A116C220A128A11013045
:1004C80083120313A5070318A60A0030A6074B2AB0
:1004D80083120313A4008C220A128A1183120313B5
:1004E800881208162408F90004300310F90CFF3E9E
:1004F800031D792A79080F399038880008170813DE
:1005080024080F39903888000817081308120800C3
:1005180093220A128A11F800F81F08008C2A0F305B
:100528008316031388008312881608120230A0006D
:10053800A101C3220A128A1183120313081708089B
:10054800A200F70003300310F70DFF3E0310031D50
:10055800A82A770DF039A300081308170808A20085
:100568000F392304A300081388120310003003185E
:1005780001308316031388008312230808008316AA
:1005880003130108C13981000630831281000B1161
:10059800FF3083120313A0070318A10AA10721063D
:1005A800031DD82AFF30200603190800DE220A128C
:1005B8008A11CC2A831203130B1DDE2A0B110800A3
:1005C80083120313C2004530C10000010138C4077B
:1005D8000001FF3844070A128A1109270A128A11F2
:1005E800C300C3080319E62B4308253A0319072B50
:1005F8004308B500420884003508831380000130A1
:10060800B500C207E92A0310003003180130BA0008
:10061800132B3A16132BC030B500BA04292B00014E
:100628000138C4070001FF3844070A128A11092754
:100638000A128A11C300003A0319E62B6C3A03190F
:100648000D2B193A03190F2BE92A4108840083134B
:1006580000083A1E3B2BBD00840A0008BE00840A2D
:100668000008BF00840A0008C0000430472BB5000A
:10067800013084070008B6003508BD003608BE0002
:10068800BF01C0010230B500C107C3010314C30D87
:100698004308B50001300310B50DFF3E0310031DDC
:1006A800502B350D013EB9000A128A110927B600F0
:1006B800B90A39080A128A110927B700B90A39088C
:1006C8000A128A110927B800390A0A128A11092759
:1006D8000A128A11B9004002031D7C2B38083F0218
:1006E800031D7C2B37083E02031D7C2B36083D0278
:1006F800031C852B0130B500C30743080A3A031DC4
:100708004C2B4308BB00BC01BB1BBC03FF30BB0721
:100718000318BC0ABC073C06031D942BFF303B069C
:100728000319E92A4008A8003F08A7003E08A600C8
:100738003D08A5003B08B50001300310B50DFF3E8C
:100748000310031DA22B350D013EAC000A128A11BD
:100758000927A900AC0A2C080A128A110927AA003D
:10076800AC0A2C080A128A110927AB002C0A0A12B3
:100778008A1109270A128A11AC003D240A128A112B
:100788008313831203132808B0002708AF00260834
:10079800AE002508AD00B401B301B2010A30B100C2
:1007A800EF230A128A118313831203132D08303E94
:1007B800C300B50042088400350880000130B50048
:1007C800C2078A2B03104208840000300318013046
:1007D800831380000800831203133408330432049F
:1007E80031040319342CF9010314F90DB41B092C35
:1007F8000130F8000310B10DB20DB30DB40DF80BB4
:10080800FE2B0130F800F907FA2B34083002031DDB
:10081800172C33082F02031D172C32082E02031D34
:10082800172C31082D02031C272C3108AD02320881
:10083800031C320FAE023308031C330FAF02340817
:10084800031C340FB00201300310B40CB30CB20C0B
:10085800B10CFF3E031D282C0130F902031D092CA1
:100868003008B0002F08AF002E08AE002D08AD00EC
:10087800080083120313A301A201A101A0012C08FF
:100888002B042A0429040319902CA4010314A40D91
:100898000130F700AC1B5D2C0310A90DAA0DAB0DA0
:1008A800AC0DF70B502C0130F700A4074C2C01308D
:1008B800F7000310A00DA10DA20DA30DF70B5D2CE1
:1008C8002C082802031D722C2B082702031D722CEA
:1008D8002A082602031D722C29082502031C832CD2
:1008E8002908A5022A08031C2A0FA6022B08031CA4
:1008F8002B0FA7022C08031C2C0FA8022014013070
:100908000310AC0CAB0CAA0CA90CFF3E031D842CE5
:100918000130A402031D5B2C2308A8002208A700AD
:100928002108A6002008A500080083160313061452
:10093800011383120B168B170A128A115A260A12F0
:100948008A11E4210A128A11152001308312031337
:10095800A8000030A9000A128A1162219F30831270
:100968000313A5000030A6000A128A114B220A12AE
:100978008A1138260A128A1155260A128A11FA276C
:1009880003300A128A11172004300A128A1117201C
:1009980005300A128A11172006300A128A11172008
:1009A80002300A128A11172007300A128A111720FA
:1009B8000A128A11F608031D392D831203135F08E2
:1009C800CB00CC01C5004C08C6006730C4006108E4
:1009D800CD00CE01C9004E08CA006008CF00D00182
:1009E800C7005008C800A0300A128A11E42201305A
:1009F80083120313A800A9010A128A116221A030E8
:100A080083120313A5008030A6000A128A114B2214
:100A1800831203136208CB00CC01C5004C08C60042
:100A28005330C4006408CD00CE01C9004E08CA0086
:100A38006308CF00D001C7005008C800A0300A12D0
:100A48008A11E422113083120313A800A9010A12A3
:100A58008A116221A03083120313A5008030A600FA
:100A68000A128A114B220A128A117608013A031DCA
:100A7800BF2D831203135108CB00CC01C5004C08CD
:100A8800C6002930C4005308CD00CE01C9004E0865
:100A9800CA005208CF00D001C7005008C800A030D3
:100AA8000A128A11E422013083120313A800A90153
:100AB8000A128A116221A03083120313A500803024
:100AC800A6000A128A114B22103083120313A800C1
:100AD800A9010A128A1162210A128A1183120313C8
:100AE800D508031D792D4E307A2D53300A128A11FC
:100AF8006C22831203135608CB00CC01C5004C08A6
:100B0800C6003E30C4005808CD00CE01C9004E08CA
:100B1800CA005708CF00D001C7005008C800A0304D
:100B28000A128A11E422113083120313A800A901C2
:100B38000A128A116221A03083120313A5008030A3
:100B4800A6000A128A114B22203083120313A80030
:100B5800A9010A128A1162210A128A118312031347
:100B6800DA08031DB92D4530BA2D57300A128A11FB
:100B78006C220A128A117608023A031DC42C7108E5
:100B880083120313CB00CC010830CD000310CB0D2A
:100B9800CC0DCD0BCA2D72084B07DB0000300318B3
:100BA80001304C07DC00DD01DC1BDD035D08DE00E5
:100BB800A8005D08A7005C08A6005B08A500AC01BA
:100BC800AB01AA016430A9000A128A113D248313DB
:100BD800831203132808DE002708DD002608DC003E
:100BE8002508DB008D30C4005E08C8005D08C7001A
:100BF8005C08C6005B08C500A0300A128A11E4220E
:100C0800013083120313A800A9010A128A11622174
:100C1800A03083120313A5008030A6000A128A119F
:100C28004B227B3083120313C4007308CB00CC0122
:100C3800C5004C08C600A0300A128A11E4221130FF
:100C480083120313A8000030A9000A128A11622136
:100C5800A03083120313A5008030A6000A128A115F
:100C68004B220A128A11C42C831603131815333029
:100C780099001812831298178316071787170C12F2
:100C88008C121813831218138316981683121816C9
:100C9800080064008001840A04060319003404066D
:100CA8004E2E8316031387120712080083120313AC
:040CB8008817080091
:100E0000FE00FE1F082F83137E18831700080800BA
:100E10000408FE0007308A007E088207003401348F
:100E20000034003400340A340034003400346434B4
:100E3000003400340034E834033400340034103417
:100E4000273400340034A034863401340034403474
:100E500042340F34003480349634983400340034F3
:100E6000E134F53405340034CA349A343B344C341C
:100E70004134543449343D34253475346434253494
:100E800075346D3425347534733420342034203473
:100E900020342034203400344C344F344E34473422
:100EA0003D34253475346434253475346D3425343B
:100EB00075347334203420342034203420342034EA
:100EC0000034543449344D34453420343D342034D6
:100ED000253475343A34253475343A342534753430
:100EE0002034203420342034003444344134543409
:100EF000453420343D342034253475343A34253497
:100F000075343A3425347534203420342034203478
:100F100000344E3442342034533441345434203479
:100F20003D342034253475342034203420342034AA
:100F300020342034003441344C3454344934203487
:100F40003D34203425346C34753420346D342034F1
:100F5000203420342034203400344134433451349C
:100F60005534493453344934543449344F344E346D
:100F70002E342E342E34003421344734503453343C
:100F80000034831203138B180B1ED52F01308316E8
:100F9000B000F6077608033A031DD32F0310003084
:100FA00003180130F60083128B1083163408FE00FC
:100FB00033088A003208840031088300FF0E7F0E58
:100FC0000900F101F201F301F401F501F6018313C7
:100FD0005130840065300A128A114D26A0308400F9
:100FE000B0300A128A114D260A128A1183010A12A0
:0E0FF0008A11992C831203138716071208002A
:02400E007A3FF7
:00000001FF
