:060000000A128A11122809
:10000800FF00030883120313D8000408D9000A0864
:10001800DA007E08DB000A128A11472D0A128A11BB
:10002800772D831603130614011383120B168B17EF
:100038000A128A119F250A128A11A7230A128A1105
:1000480062250A128A119A250A128A1195258312A5
:100058000313181218160A128A118F250A128A1108
:10006800243A031D2F280A128A118F250A128A1191
:10007800473A031D95290A128A118F250A128A11F7
:10008800503A031D95290A128A118F250A128A11DE
:10009800523A031D95290A128A118F250A128A11CC
:1000A8004D3A031D95290A128A118F250A128A11C1
:1000B800433A031D95290A128A118F250A128A11BB
:1000C800F8000310003003180130F6007608023AF1
:1000D800031D79283A30F5007608293E8400750812
:1000E800831380000130F500F6077608053A031DF2
:1000F80088283A30F5007608293E8400750883136D
:1001080080000130F500F6070A128A118F250A12BD
:100118008A11F5007608293E84007508831380004B
:100128000130F500F60708307602031C6A28031030
:100138007608293E840000300318013080000A1236
:100148008A118F25F8000A128A118F25F8000A12E1
:100158008A118F250A128A11F8003030831203138E
:10016800BA00F6010314F60D7608033A031DC728F2
:100178002E30F50076083A3E840075088313800017
:100188000130F500F6070A128A118F250A128A1122
:10019800F50076083A3E8400750883138000013024
:1001A800F500F60706307602031CB8280310003065
:1001B80003180130F6000A128A118F250A128A11D3
:1001C800F8000130F500F60706307602031CDF2838
:1001D8000A128A118F25F500750883120313C000CF
:1001E8000310003003180130C1000A128A118F254C
:1001F8000A128A11F8000310003003180130F600C3
:100208007608033A031D13292E30F5007608423E7E
:1002180084007508831380000130F500F6070A1280
:100228008A118F250A128A11F5007608423E840049
:100238007508831380000130F500F6070630760252
:10024800031C04290310003003180130F6000A12B9
:100258008A118F250A128A11F8000130F500F60775
:1002680006307602031C2B290A128A118F25F50005
:10027800750883120313C8000310003003180130F7
:10028800C9000310003003180130F6000A128A1161
:100298008F250A128A11F8000130F500F6070D3093
:1002A8007602031C4A290310003003180130F600B7
:1002B8007608023A031D6B293A30F5007608203E8D
:1002C80084007508831380000130F500F60776086E
:1002D800053A031D7A293A30F5007608203E840055
:1002E8007508831380000130F500F6070A128A1199
:1002F8008F250A128A11F5007608203E84007508B9
:10030800831380000130F500F60708307602031CDD
:100318005C2903107608203E840000300318013061
:1003280080000A128A118F250A128A11243A031DA5
:1003380095290A128A118F250A128A11473A031D34
:100348002D2A0A128A118F250A128A11503A031D82
:100358002D2A0A128A118F250A128A11473A031D7B
:100368002D2A0A128A118F250A128A11473A031D6B
:100378002D2A0A128A118F250A128A11413A031D61
:100388002D2A0A128A118F25F8000310003003184D
:100398000130F6000A128A118F250A128A11F80014
:1003A8000130F500F60722307602031CCE2903102F
:1003B800003003180130F6000A128A118F250A123C
:1003C8008A11F50076084A3E840075088313800078
:1003D8000130F500F60702307602031CE02903100D
:1003E80076084A3E8400003003180130800003106C
:1003F800003003180130F6000A128A118F250A12FC
:100408008A11F8000130F500F60706307602031C61
:10041800002A0310003003180130F6000A128A116E
:100428008F250A128A11F5007608323E8400750875
:10043800831380000130F500F60707307602031CAD
:10044800122A03107608323E840000300318013067
:100458008000F708031D7D2A0A128A1123232330FE
:1004680083120313D1000030D2000A128A110E241D
:10047800083083120313D5000030D6000A128A11FF
:100488002523203083120313D1008030D2000A12B2
:100498008A110E24343083120313D1000030D200A5
:1004A8000A128A110E240A128A1121232A30831271
:1004B8000313D100D2010A128A110E2418308312B4
:1004C8000313D500D6010A128A1125232930831275
:1004D8000313D1008030D2000A128A110E2434305E
:1004E80083120313D100D2010A128A110E240A12B0
:1004F8008A117708013A031DCE2A0A128A1123238A
:10050800133083120313D1000030D2000A128A116B
:100518000E24083083120313D5000030D6000A12C7
:100528008A1125233A3083120313D1008030D20078
:100538000A128A110E24323083120313D1000030BC
:10054800D2000A128A110E240A128A1121231B30A2
:1005580083120313D100D2010A128A110E24183013
:1005680083120313D500D6010A128A1125234230BB
:1005780083120313D1008030D2000A128A110E248C
:10058800323083120313D100D2010A128A110E24C9
:100598000A128A117708023A031D2B280A128A11B7
:1005A80023230B3083120313D1000030D2000A1228
:1005B8008A110E24083083120313D5000030D600A8
:1005C8000A128A112523323083120313D100803096
:1005D800D2000A128A110E24363083120313D10076
:1005E8000030D2000A128A110E240A128A1121231D
:1005F800013083120313D100D2010A128A110E248A
:100608001A3083120313D500D6010A128A11252342
:100618004A3083120313D1008030D2000A128A11A3
:100628000E24313083120313D1000030D2000A1295
:100638008A110E240A128A112B28C030EF2B803021
:10064800EF2B831203135508FF3ED10056080318F9
:10065800013EFF3ED2001030D300D40146230A12D7
:100668008A118313831203135108F4000630031010
:10067800F40DFF3E031D3B2B5508FF3E0F39740751
:10068800803EEF2B03100030031801308312031350
:10069800CE00D41F572BD309D409D30A0319D40A7F
:1006A800CE010314CE0DD21F612BD109D209D10A74
:1006B8000319D20A0130F100CE06CF01D001540847
:1006C80053040319982BCD010314CD0D0130D41B0D
:1006D800782B0310D30DD40DFF3E031D6D2B013075
:1006E800F100CD076A2B01300310CF0DD00DFF3E6E
:1006F800031D782B54085202031D842B5308510202
:10070800031C8D2B5308D1025408031CD203D202B8
:100718004F1401300310D40CD30CFF3E031D8E2B55
:100728000130CD02031D772B4E080319A02BCF09EA
:10073800D009CF0A0319D00A5008D201D2074F08AE
:10074800D101D10708001E3083120313CD00CE015A
:1007580084240A128A11031000300318013083160A
:1007680003138800831288170812081388120808D0
:1007780003388800081708131E30CD00CE018424E2
:100788000A128A118312031308080338880008170D
:1007980008131E30CD00CE0184240A128A11831258
:1007A8000313080803388800081708131E30CD0003
:1007B8000030CE0084240A128A112830EF230A124E
:1007C8008A110F30EF230A128A110130EF230A121F
:1007D8008A110630EF2B83120313D1004D240A121D
:1007E8008A1183120313881208125108F300043087
:1007F8000310F30CFF3E031DFC2B73080F398038E0
:1008080088000817081351080F398038880008171E
:1008180008130800831203135108840052080A12AF
:100828008A1100250A128A11003803190800510894
:10083800840052080A128A1100250A128A112F24EC
:100848000A128A11013083120313D1070318D20A3E
:100858000030D2070E2CF4004D240A128A1183129C
:100868000313881208167408F30004300310F30CFD
:10087800FF3E031D3A2C73080F399038880008177B
:10088800081374080F3990388800081708130812DD
:10089800080054240A128A11F200F21F08004D2C95
:1008A8000F3083160313880083128816081202304B
:1008B800CD00CE0184240A128A118312031308176B
:1008C8000808CF00F10003300310F10DFF3E0310BC
:1008D800031D692C710DF039D0000813081708089A
:1008E800CF000F395004D0000813881203100030CD
:1008F8000318013083160313880083125008080078
:10090800831603130108C139810006308312810060
:100918000B11FF3083120313CD070318CE0ACE073D
:100928004E06031D992CFF304D06031908009F241D
:100938000A128A118D2C831203130B1D9F2C0B1185
:020948000800A5
:100A0000FE00FE1F082D83137E18831700080800C0
:100A10000408FE0005308A007E08820700344E3448
:100A20004234203453344134543420343D3420345F
:100A3000003441344C345434493420343D3420346F
:100A400000344C3441345434493420343D3420345F
:100A500000344C344F344E34473420343D34203449
:100A60000034443441345434453420343D3400346B
:100A7000543449344D34453420343D34003420342A
:100A8000203420342034003420346D3400348B186A
:100A90000B1E572D0130D700F7077708033A031DC7
:100AA000562D0310003003180130F7008B105B083F
:100AB000FE005A088A005908840058088300FF0E77
:100AC0007F0E09008316031318153330990018128E
:100AD000831298178316071787170C128C12181396
:100AE0008312181383169816831218160800F6013D
:100AF000F701F8018313203084004D300A128A1167
:100B000087250A128A1183010A128A1115286400A6
:100B10008001840A0406031900340406882D831218
:100B200003138C1E8F2D1A080800831203138712DB
:100B30000716080083160313871207120800831292
:060B4000031388170800F2
:02400E007A3FF7
:00000001FF
